:020000040800F2
:10000000F07501205D020008D7440008C1330008E4
:10001000D5440008D10500087D5300080000000009
:100020000000000000000000000000009D0100082A
:10003000C706000800000000F90100083D4700085D
:1000400077020008770200087702000877020008AC
:10005000770200087702000877020008770200089C
:10006000770200087702000877020008770200088C
:10007000770200087702000877020008770200087C
:10008000770200087702000877020008770200086C
:10009000770200087702000877020008770200085C
:1000A000770200087702000877020008770200084C
:1000B00011480008554800089948000877020008D0
:1000C00077020008770200087702000875450008EB
:1000D00077020008695300087702000877020008D9
:1000E000DD0600087702000877020008BD49000815
:1000F000114A0008054A0008770200087702000844
:100100007702000877020008DD480008770200083F
:1001100077020008F54D0008770200082149000821
:100120007702000877020008D5050008E1050008FD
:1001300077020008770200087702000877020008BB
:1001400077020008770200087702000877020008AB
:100150007702000877020008ED0500087702000822
:10016000770200087702000877020008770200088B
:1001700077020008770200087702000800000000FC
:100180007702000877020008DFF80CD000F004F9CD
:1001900000480047516A0008F07501202C4B19688F
:1001A0000868B0E8F04F80F30988BFF36F8F4FF015
:1001B000000080F3118870470000000008480068C4
:1001C000006880F308884FF0000080F3148862B65E
:1001D00061B6BFF34F8FBFF36F8F00DF00BF00BF6B
:1001E00008ED00E0DFF80C00016841F470010160E7
:1001F000704700BF88ED00E0EFF30980BFF36F8F19
:10020000134B1A681EF0100F08BF20ED108A20E96A
:10021000F04F106009B44FF0500080F31188BFF325
:100220004F8FBFF36F8F0AF0F1FB4FF0000080F3A8
:10023000118809BC19680868B0E8F04F1EF0100F6B
:1002400008BFB0EC108A80F30988BFF36F8F704746
:1002500068000020EFF305807047000006488047E3
:1002600006480047FEE7FEE7FEE7FEE7FEE7FEE79B
:10027000FEE7FEE7FEE7FEE7F54700088901000814
:100280002DE9F05F0546002092469B4688460646CB
:10029000814640241BE0284641464746224600F05E
:1002A0006AF853465A46C01A914110D3114618466F
:1002B000224600F051F82D1A67EB01084F462246FE
:1002C0000120002100F048F817EB00094E41201EE4
:1002D000A4F10104DFDC484631462A464346BDE826
:1002E000F09F10B5431A934209D28318881803E08F
:1002F00010F8011D03F8011D521EF9D210BD40EA8D
:1003000001039B0703D009E008C9121F08C0042A93
:10031000FAD203E011F8013B00F8013B521EF9D27A
:1003200010BDD2B201E000F8012B491EFBD270478C
:100330000022F6E710B513460A4604461946FFF7B1
:10034000F0FF204610BD034611F8012B00F8012BE9
:10035000002AF9D118467047202A04DB203A00FA17
:1003600002F1002070479140C2F1200320FA03F30C
:10037000194390407047202A04DB203A21FA02F00A
:100380000021704721FA02F3D040C2F120029140CF
:100390000843194670470000064C074D06E0E06828
:1003A00040F0010394E8070098471034AC42F6D3BC
:1003B000FFF7EEFEB4C80008D4C8000870B58C186A
:1003C00010F8015B15F0070301D110F8013B2A1169
:1003D00006D110F8012B03E010F8016B01F8016B56
:1003E0005B1EF9D12B0705D40023521E0DD401F852
:1003F000013BFAE710F8013BCB1A921C03E013F81B
:10040000015B01F8015B521EF9D5A142D8D300204F
:1004100070BD10B50146886B026C12F0500F05D00C
:10042000026CD20626D500F019FA10BD016C41F419
:100430000071016401688A6812F0405F17D1027E82
:10044000AAB9CA6A12F4700F02D08A6852050ED493
:100450004A6822F020024A60016C21F48071016434
:10046000016CC90403D4016C41F00101016400F086
:10047000F3F910BD806BC26CBDE810400846104710
:1004800010B5806B40210164416C41F0040141646E
:1004900000F0E4F910BD10B5806B00F0DEF910BD7E
:1004A0004A494A6822F440324A604A6843681A431B
:1004B0004A6001684A6822F480724A6001684A68AA
:1004C000036942EA03224A6001684A6822F04072E6
:1004D0004A6001684A6883681A434A6001688A680A
:1004E00022F400628A6001688A68C3681A438A60DD
:1004F000816A6FF07062D14214D001688A6822F07C
:1005000070628A6001688A68836A1A438A60016837
:100510008A6822F040528A6001688A68C36A1A4376
:100520008A6009E001688A6822F070628A60016866
:100530008A6822F040528A6001688A6822F00202CA
:100540008A6001688A68037E42EA43028A6090F802
:10055000201089B101684A6842F400624A6001686B
:100560004A6822F460424A6001684B68426A521E3F
:1005700043EA42324A6004E001684A6822F40062B9
:100580004A600168CA6A22F47002CA620168CB6AD2
:10059000828B521E43EA0252CA6201688A6822F4C0
:1005A00000728A6001688A6890F8303042EA43221B
:1005B0008A6001688A6822F480628A6001688A68B9
:1005C000406942EA802088607047000000230140B3
:1005D000FEE70000014800F0F1BA0000B00F002073
:1005E000014800F0EBBA0000AC060020014800F022
:1005F000E5BA0000101000200168CAB2103A1823B2
:10060000B2FBF3F2064B9B5CC3656FF30901032A4F
:1006100002D9091D816500E08165806D7047000089
:10062000D4BB000810B5014600208A6A8B694FF0E0
:10063000C074002B0ED0B3F5005F1AD062B3012A4C
:100640002AD0022A28D0032A03D1C96AC90100D5B9
:10065000012010BD1AB1012A06D0022AF9D1C96AB7
:10066000C901F6D5012010BDC96AA142FBD1012004
:1006700010BD52B1012A0AD0022A06D0032AF7D1AE
:10068000C96AA142F4D1012010BD012010BDC96A80
:10069000C901FBD5012010BD012010BD30B5046893
:1006A000256825F480252560046863608368402BF5
:1006B00004D0036899600068C26030BD03689A6026
:1006C0000068C16030BD70470021C0EBC00001E090
:1006D00000BF491C8842FBD87047000005480168EC
:1006E000C90405D5811401600348006806F02CBEDA
:1006F00070470000143C01404000002072B6FEE745
:1007000078B50024009490F83C20012A19D00122E9
:1007100080F83C200A680725092A14D90368DE6896
:100720000A3A02EB42029540AE43DE600A788B68DB
:100730000A3A02EB420293400268D5682B43D36029
:1007400011E0022078BD03681E6902EB4202954069
:10075000AE431E610A788B6802EB42029340026846
:1007600015692B4313614A681F25072A13D20368B2
:100770005E6B521E02EB82029540AE435E630A88B6
:1007800093B20A79521E02EB820293400268556BC3
:100790002B43536328E00D2A13D203681E6BD21F2C
:1007A00002EB82029540AE431E630A8893B20A7937
:1007B000D21F02EB820293400268156B2B43136336
:1007C00012E00368DE6A0D3A02EB82029540AE4306
:1007D000DE620A8893B20A790D3A02EB82029340F4
:1007E0000268D56A2B43D362174A184B05689D42AD
:1007F00006D10D68122D03D1556845F4800555606A
:1008000005689D421BD10B68102B01D0112B16D10E
:10081000536843F400035360096810290FD10C4951
:100820000C4A0968B1FBF2F101EB8101490000912A
:1008300002E00099491E009100990029F9D180F841
:100840003C40002078BD0000002301400020014012
:100850005800002040420F0070477047704770B545
:1008600004460026002C03D0206C002510B107E0C0
:10087000012070BD204600F01DF8656484F83C50EE
:10088000206CC00610D4206C20F4885040F0020088
:1008900020642046FFF704FE6564206C20F002000F
:1008A00040F00100206400E0012684F83C5030460E
:1008B00070BD000070B586B00646142101A8FFF790
:1008C00037FD1D493068884234D100251B48016836
:1008D00041F480710160006800F480700090174856
:1008E0001438016841F002010160006800F0020064
:1008F00000900120019003200290039501A9104867
:1009000000F0E6FA104C0F4820606560A560E560D5
:1009100000152061400060618000A0614011E0612D
:1009200025626562204600F031FA08B1FFF7E6FE65
:10093000B463A66306B070BD002001404438024095
:1009400000040240106402406C050020F8B5044623
:100950000023009394F83C00012807D0012084F87C
:100960003C0020688568ED0702D014E00220F8BD45
:10097000856845F0010585604648474D0068B0FB35
:10098000F5F000EB4000009002E00098401E00905F
:1009900000980028F9D120688568ED0503D58568A1
:1009A00025F48075856020688568ED0768D0256C22
:1009B00040F20166B54345F4807525644068400502
:1009C00005D5206C20F4005040F480502064206C49
:1009D000C00404D5606C20F00600606400E063642D
:1009E00084F83C302D4EA36B2D48D863A36B2D4863
:1009F0001864A36B2C48D86423686FF02200186039
:100A00002068436843F0806343602068836843F450
:100A100080738360206813464C300A46A56B0146FC
:100A2000284600F01DFA70682049C00607D02068EB
:100A300088422DD1816811F0405F1CD028E02068E9
:100A400088420FD01A4A904203D1D1F80423D2062B
:100A500008D0184A90421BD1D1F8041301F01F01AD
:100A6000102915D2816811F0405F11D1816841F0E1
:100A7000804181600CE0816841F08041816007E045
:100A8000206C40F010002064606C40F00100606455
:100A90000020F8BD5800002040420F000023014014
:100AA0001304000897040008810400080020014096
:100AB000002101400022014010B50446002C02D064
:100AC000607910B106E0012010BD002020712046A1
:100AD00000F004F801206071002010BD08B5006826
:100AE0000649884208D10648016841F480510160F6
:100AF000006800F48050009008BD00000030024003
:100B0000303802402DE9F0410446A76D00F0D6FAD6
:100B1000054694F835000026022806D0802060653E
:100B200084F834600120BDE8F0812068016821F07C
:100B3000160101602068416921F080014161206C4B
:100B400008B9A06C20B12068016821F0080101609B
:100B50002068016821F0010101600BE000F0AEFAAD
:100B6000401B052806D92020343420620320607001
:100B70002670D8E720680068C007EFD134343F20E2
:100B800094F828108840B86001206070267000201A
:100B9000C9E790F83510022903D080214165012072
:100BA0007047052180F835100068016821F00101C7
:100BB000016000207047406D704700002DE9F84348
:100BC00004464FF00009CDF800906F484FF41651DD
:100BD0000068B0FBF1F7A56D2E6894F85C00082260
:100BE00002FA00F1314210D02068016849070CD5A3
:100BF000016821F00401016094F85C0002FA00F140
:100C0000A960606D40F00100606594F85C104FF0E1
:100C1000010808FA01F0304208D021684969090644
:100C200004D5A860606D40F00200606594F85C1027
:100C300004208840304208D021680968890704D51B
:100C4000A860606D40F00400606594F85C101020AE
:100C50008840304220D02168096809071CD5A86067
:100C60002068016849030CD50068000304D4216C96
:100C700091B1204688470FE0A16C69B120468847B2
:100C80000AE00168C90503D4016821F00801016088
:100C9000216C09B12046884794F85C1020208840D8
:100CA00030424CD021680968C90648D5A86094F83C
:100CB000350005280BD020680168490330D500684D
:100CC000000328D4616C51B32046884737E0206880
:100CD000016821F0160101602068416921F080015E
:100CE0004161206C08B9A06C20B12068016821F036
:100CF0000801016094F85C103F208840A86084F8E7
:100D0000358084F83490216D00293BD001B0204615
:100D1000BDE8F0430847E16B09B1204688470EE083
:100D20000168C90507D4016821F01001016084F849
:100D3000358084F83490E16B09B120468847606DB6
:100D400000281FD0606DC00714D0052084F835003E
:100D50002068016821F0010101600098401C0090AA
:100D6000B84203D820680068C007F6D184F83580FF
:100D700084F83490E16C002904D001B02046BDE82D
:100D8000F0430847BDE8F883580000202DE9F04102
:100D9000044600F093F905465CB1022084F8350062
:100DA000002684F834602068016821F001010160A8
:100DB0000DE00120BDE8F08100F080F9401B05281E
:100DC00005D920206065032084F83500F2E720680B
:100DD0000068C007F0D121680A6820480240D4E9C1
:100DE00001031843D4E903352B43184363691843BF
:100DF000A3691843E3691843236A18431043626ADE
:100E0000042A03D1D4E90B231A4310430860206855
:100E1000406920F00700656A294605430127042937
:100E20000DD1A06A0543E06A48B12046FFF7FAFBFE
:100E300028B14020606584F835700120BAE7206849
:100E400045612046FFF7D8FB94F85C203F21914094
:100E50008160666584F835700020ABE73F8010F054
:100E60002DE9F04104460025A66D94F834000128D0
:100E70000DD0012084F8340094F835700020012F43
:100E800007D084F8340002252846BDE8F08102200E
:100E9000FBE7022784F8357060652046FFF7FEFB0C
:100EA00094F85C103F208840B0602068016841F0F1
:100EB00016010160206C20B12068016841F0080132
:100EC00001602068016841F001010160DCE7000079
:100ED0002DE9F84F0022DFF89C914FF0010803271D
:100EE0004FF00F0C09F1040AA9F1040B08FA02F5FE
:100EF0000B682B40AB426ED10C7904F00304012C3B
:100F000001D0022C15D18668540007FA04FE26EAA7
:100F10000E06D1F80CE00EFA04FE4EEA060EC0F8FA
:100F200008E04468AC430D79C5F3001595402543AE
:100F300045600C79E443A40708D0C568540007FA5B
:100F400004F6B5438E68A6402E43C6600C7904F0C3
:100F50000304022C11D1D40800EB8406356A54072F
:100F6000E40E0CFA04FE25EA0E05D1F810E00EFAA4
:100F700004FE4EEA050EC6F820E00568540007FAA4
:100F800004F6B5430E7906F00306A6402E4306602C
:100F90004C6814F4403F67D0374C256845F48045D1
:100FA0002560246804F480440094344C22F0030546
:100FB0002E19D6F8085894074FEA147E0CFA0EF44E
:100FC000A5432F4CA04201D1002424E02D4CA04287
:100FD00002D101241FE047E02B4CA04201D10224A2
:100FE00019E02A4CA04201D1032414E0284CA0426D
:100FF00001D104240FE0274CA04201D105240AE0CE
:10100000254CA04201D1062405E0244CA04201D188
:10101000072400E0082404FA0EF42C43C6F808481C
:10102000D9F800409C434D68ED0200D51C43C9F837
:101030000040DAF800409C434D68AD0200D51C43E7
:10104000CAF80040DBF800409C434D68AD0300D572
:101050001C43CBF80040074D083D2C689C434E686C
:10106000F60300D51C432C60521C102AFFF43EAF3F
:10107000BDE8F88F083C0140443802400030014090
:10108000000002400004024000080240000C024040
:10109000001002400014024000180240001C0240F0
:1010A0000069084201D00120704700207047002AE3
:1010B00001D08161704709048161704701488068EF
:1010C000704700005C00002090F83C10012912D00D
:1010D000012100F83C1F2421417050F83C1CCA68D3
:1010E00022F00C0242F00402CA602021417000216B
:1010F0000170002070470220704790F83C100129D1
:1011000012D0012100F83C1F2421417050F83C1CF2
:10111000CA6822F00C0242F00802CA602021417025
:1011200000210170002070470220704770B504460E
:10113000002C04D094F83D00002510B10DE00120F2
:1011400070BD84F83C50204603F07EFFE06E08B985
:101150001548E066E16E20468847242084F83D006B
:101160002068C16821F40051C160204603F0F6FFF9
:101170002068016921F4904101612068416921F0F2
:10118000220141612068416941F008014161206804
:10119000C16841F40051C1602564202084F83D00FD
:1011A00084F83E00002070BDE930000870B50446A8
:1011B000002C04D094F83D00002510B106E0012079
:1011C00070BD84F83C50204600F060F9242084F87B
:1011D0003D002068016821F001010160206801687C
:1011E00041F4004101602068016821F40041016080
:1011F00000F050FB4F4B6168994203D84E4988423A
:1012000003D304E04D49884201D2012070BD4C490E
:10121000B0FBF1F12268566826F03F060E43566097
:1012200062689A4201D8491C07E04FF49672514314
:101230004FF47A72B1FBF2F1491C2268166A26F06B
:101240003F06314311626168994210D84900401E3F
:10125000B0FBF1F2521CC2F30B02042A01D20420AB
:1012600022E0B0FBF1F0401CC0F30B001CE0A268D0
:10127000F2B301EBC10303EB0116431EB3FBF6F31C
:101280005B1C43F480431B0549D092B301EBC102C0
:1012900002EB0111401EB0FBF1F0401CC0F30B004B
:1012A00040F4804040F400402168CA694CF6FF7366
:1012B0009A431043C861D4E90710014320680268CB
:1012C00022F0C00211430160D4E903010143206808
:1012D000826848F2FF339A4311438160D4E90510D4
:1012E00001432068C26822F0FF021143C16001E09F
:1012F0000EE016E02068016841F0010101602564FC
:10130000202084F83D00256384F83E50002070BD05
:1013100001EB4106431EB3FBF6F35B1CB3E7012070
:10132000C2E701EB4101401EB0FBF1F0401CC0F3ED
:101330000B00B7E7A086010080841E0000093D0075
:1013400040420F002DE9F84F04468A46154699465B
:10135000DDF82880FFF7B2FE064694F83D0020280D
:1013600002D00220BDE8F88F19230122454920460A
:10137000009602F0ECF808B10220F3E794F83C0084
:10138000012807D0012084F83C0020680168C907C3
:1013900002D005E00220E5E7016841F001010160AB
:1013A0002068016821F400610160212084F83D007B
:1013B000102084F83E00002727646562A4F82A9074
:1013C000608D20853048E0623346424651462046D3
:1013D00002F00EF808B10120C4E720684169806975
:1013E00000903EE032464146204602F041F948B1C5
:1013F000206C042804D12068016841F40071016068
:101400000120AFE7606A216800780861656A6D1C99
:101410006562608D401E6085208D401E80B22085F3
:1014200022685169C94349070BD450B1287810612B
:10143000606A401C6062608D401E6085208D401E89
:10144000208532464146204602F05AF848B1206CC9
:10145000042804D12068016841F400710160012072
:1014600080E7208D0028BDD11F3454F81F0C01687F
:1014700041F4007101602020A077E77767770020B2
:1014800070E70000020010000000FFFF10B586B0FA
:101490000446142101A8FEF74BFF13492068884237
:1014A00020D11248016841F002010160006800F09B
:1014B00002000090C02001901220029001200390B1
:1014C000032004900420059001A90948FFF700FDBE
:1014D00006481030016841F400110160006800F412
:1014E0000010009006B010BD00540040303802409B
:1014F0000004024070B50446002C11D021684CF65F
:10150000CC400860216845F255500860D4E90010CD
:1015100048602168A0688860FFF7D0FD05460CE0B0
:10152000012070BDFFF7CAFD401B312805D9206896
:10153000C068800701D0032070BD2068C0688007A4
:10154000F0D121684AF6AA200860002070BD00682A
:101550004AF6AA2101600020704700000248816815
:1015600002781144816070475C00002010B50B4880
:10157000016841F400710160016841F4806101601B
:10158000016841F480710160032000F09FF80F2092
:1015900000F006F800F050F8002010BD003C0240BA
:1015A00030B587B0054600241E48016841F48071BB
:1015B0000160006800F48070009001A902A800F0AA
:1015C00045F90598A8B100F065F940001649B0FB4F
:1015D000F1F1491E1648154A026040F2E732C26036
:1015E000416004618460846100F0F0FD04461CB138
:1015F00015E000F04FF9E9E70D4800F07FFE0446E2
:101600006CB92D2000F034F8102D07D200222946A5
:101610002D2000F03BF80748056000E0012407B0EA
:10162000204630BD4038024040420F0000200040BC
:10163000701000206000002082B00C48016841F466
:1016400080410160006800F4804001900748001F5D
:10165000016841F080510160006800F08050019005
:1016600000220F21901E02B000F010B84438024052
:10167000002809DB00F01F02012191404009800091
:1016800000F1E020C0F8001170470000F0B40D46F2
:101690000D4B1B68C3F30223C3F10704042C00D9CC
:1016A0000424191D072901D2002300E0DB1E0126B6
:1016B00006FA04F1491E294099409E40761E1640C4
:1016C0003143F0BC03F03EBF0CED00E000F0070139
:1016D000054A10684FF6FF03184040EA012003490D
:1016E00008431060704700000CED00E00000FA05B0
:1016F000704700002DE9F04704460D46002C13D03A
:10170000DFF82891D9F80000EFB200F00700A842F6
:101710000CD289F80070D9F8000000F00700A84248
:1017200004D00120BDE8F0870120FBE72068404E8F
:10173000810712D5400703D5306840F4E05030608F
:101740002078000703D5306840F46040306030688E
:10175000A16820F0F000084330602078C00731D045
:10176000334960680839012808D002280BD00328C3
:1017700009D0096889070BD40120D3E709688903D8
:1017800006D40120CEE70968890101D40120C9E708
:10179000316821F0030101433160FFF78FFC80467F
:1017A00041F2883A07E0FFF789FCA0EB08005045BA
:1017B00001D90320B6E73068616800F00C00B0EB97
:1017C000810FF0D1D9F8000000F00700A84209D934
:1017D00089F80070D9F8000000F00700A84201D095
:1017E00001209FE72078400705D53068E16820F4A4
:1017F000E050084330602078000706D53068216942
:1018000020F4604040EAC100306000F063F83168C5
:10181000084AC1F30311515CC840074908600748F2
:101820000068FFF7BDFE00207CE70000003C02409E
:1018300008380240BCBB00085800002060000020AF
:1018400001490120C8647047000047420F2202602E
:101850000B4A136803F003034360136803F0F003BB
:101860008360136803F4E053C360126802F46042BB
:10187000D20802610348006800F007000860704762
:1018800008380240003C02400148006870470000F0
:101890005800002000B5FFF7F7FF04490968044A23
:1018A000C1F38221515CC84000BD000008380240ED
:1018B000CCBB000800B5FFF7E7FF04490968044AFC
:1018C000C1F34231515CC84000BD000008380240FD
:1018D000CCBB000810B51548006810F00C01144886
:1018E00023D0042921D008291FD1104C241F21689E
:1018F00001F03F022168490208D521680023C1F3A5
:101900008811A1FB0001FEF7BBFC07E02168002362
:10191000C1F38811A1FB0001FEF7B2FC2168C1F3FD
:101920000141491C4900B0FBF1F010BD08380240EC
:101930000024F40010B505480068000605D5FFF73F
:10194000D7FE02498020891C087010BD0C38024067
:101950002DE9F84F0446002C13D02078DFF8A0833F
:10196000C007A8F1040556D008F104000168C1F3CE
:10197000810101290CD00068C0F38100022803D046
:101980000DE00120BDE8F88FD8F80000400206D530
:10199000286880033FD5606870BB0120F2E760686B
:1019A000B0F5803F10D0B0F5A02F12D0286820F4F9
:1019B00080302860286820F4802028606068E0B1CA
:1019C000FFF77CFB064614E0286840F4803028606E
:1019D000F4E7286840F480202860286840F48030CC
:1019E0002860EBE7FFF76AFB801B642801D903201E
:1019F000C8E728688003F5D50DE0FFF75FFB0646D2
:101A000006E0FFF75BFB801B642801D90320B9E7E0
:101A100028688003F5D42078BA4F80074FF000097A
:101A200048D5B748001D016811F00C0F08D00068B8
:101A3000C0F38100022813D1D8F8000040020FD46F
:101A40002868800704D5E068012801D0012099E7C3
:101A50002868216920F0F80040EAC100286029E0E8
:101A6000E068B8B101203860FFF728FB064606E0C1
:101A7000FFF724FB801B022801D9032082E7286896
:101A80008007F5D52868216920F0F80040EAC100F8
:101A900028600FE0C7F80090FFF710FB064606E04D
:101AA000FFF70CFB801B022801D903206AE7286896
:101AB0008007F5D42078000729D5DFF844A29248A2
:101AC00061690AF1700A89B101210160FFF7F6FA34
:101AD000064606E0FFF7F2FA801B022801D9032030
:101AE00050E7DAF800008007F4D510E0C0F8009065
:101AF000FFF7E4FA064606E0FFF7E0FA801B02284B
:101B000001D903203EE7DAF800008007F4D42078FA
:101B1000400778D54FF0000A79483C300068C00093
:101B20000BD477483C30016841F080510160006877
:101B300000F0805000904FF0010ADFF8D0B1DBF8E0
:101B40000000C00514D4DBF8000040F48070CBF82E
:101B50000000FFF7B3FA064606E0FFF7AFFA801B76
:101B6000022801D903200DE7DBF80000C005F4D5F9
:101B7000634EA0686C3601280FD0052812D030685B
:101B800020F001003060306820F004003060A06870
:101B9000F8B1FFF793FA834617E0306840F0010090
:101BA0003060F4E7306840F004003060306840F0A6
:101BB00001003060EBE7FFF781FAA0EB0B0141F287
:101BC0008830814201D90320DCE630688007F2D5F5
:101BD00010E0FFF773FA834609E0FFF76FFAA0EB16
:101BE0000B0141F28830814201D90320CAE63068F6
:101BF0008007F2D4BAF1010F05D141483C300168A9
:101C000021F080510160A069C0B33D49091D0968F8
:101C10004FF0FF36C1F38101022946D0022805D0DA
:101C2000C7F86090FFF74AFA04463AE0C7F86090B8
:101C3000FFF744FA814607E0FFF740FAA0EB0900FE
:101C4000022801D903209DE628688001F4D4D4E954
:101C500007010843616AA26A890106EB520241EA60
:101C60000241084394F82C1040EA0160C8F80000D3
:101C700001203866FFF722FA044607E03DE0FFF74F
:101C80001DFA001B022801D903207BE62868800189
:101C9000F5D532E0FFF712FA001B022801D9032024
:101CA00070E628688001F5D427E0012823D0D8F811
:101CB0000000E26900F4800191421AD1226A00F02A
:101CC0003F01914215D147F6C071626A0140B1EB04
:101CD000821F0ED1A26A00F4403106EB5202B1EB32
:101CE000024F06D194F82C1000F07060B0EB016F39
:101CF00003D0012046E6012044E6002042E6000031
:101D00000438024000004742800E47420070004005
:101D10007047704738B50446206842688168C943F7
:101D20004B060AD5CB0708D1D3435B0605D4216CFB
:101D300001B02046BDE8304008478B0708D4D343A4
:101D40001B0605D4616C01B02046BDE83040084751
:101D50008B0603D54B0601D5CB0551D4D3439B0647
:101D60004ED44B060AD494F85130032B49D0636DFE
:101D700043F004036365C368836800938B0609D44A
:101D8000636D43F00103636583680093036823F088
:101D900040030360C80506D4606D40F0080060652C
:101DA000206880680090606D002829D02068416814
:101DB00021F0E0014160012084F85100900701D436
:101DC000D00722D02068416821F003014160124D04
:101DD000E06C40B10565E06CFEF7DBFE18B1606DAC
:101DE00040F040006065A06C002809D00565A06C3B
:101DF000FEF7CFFE002803D0606D40F04000606524
:101E000038BDC1688068009038BD216F01B02046A0
:101E1000BDE83040084700008145000870B5044621
:101E2000002C09D0606A002540B125616561A5627A
:101E300094F8510040B120E0012070BD6068B0F519
:101E4000827FF4D0E561F2E784F850502D48A06518
:101E50002D48E0652D4820662D4860662D48A06617
:101E60002D48E0662D4820672D486067A06F08B9AF
:101E70002C48A067A16F20468847022084F85100B3
:101E80002068016821F040010160A088218900F4E8
:101E9000827001F404410843A18901F40061084300
:101EA000217C01F002010843217D01F0010108437A
:101EB000218B01F400710843217F01F038010843B0
:101EC00094F8201001F080010843218D01F40051A5
:101ED000084321680860A069042101EA104094F8D1
:101EE000241001F010010843216848602068C1698E
:101EF00021F40061C1616565012084F85100002072
:101F000070BD0000D9200008FD1F0008DD2000087A
:101F1000DB200008FF1F0008DF200008131D000859
:101F2000111D0008291F00082DE9F04387B006465F
:101F3000142102A8FEF7FCF92B493068884250D1E1
:101F400000252A48016841F480510160006800F4CE
:101F50008050019025481438016841F0010101606A
:101F6000006800F0010001902020029002270397F2
:101F70000495012405944FF00508CDF81880DFF88A
:101F8000709002A94846FEF7A3FF802002900397B5
:101F900004940594CDF8188002A94846FEF798FFEE
:101FA000154C144820604FF0C06060604020A06075
:101FB000E560000120616561A561E5618001206245
:101FC00065622046FEF7E2FE08B1FEF797FBB464B7
:101FD000A663002205212320FFF758FB2320FFF7EB
:101FE00047FB07B0BDE8F0830030014044380240B1
:101FF0000000024058640240AC0600207047704761
:102000002DE9F0410446002594F85000012809D03C
:10201000012784F8507094F851000026012804D05C
:1020200002254EE00220BDE8F08189B182B1032093
:1020300084F8510066652163A286E286A663666421
:102040002664A687E687A068B0F5004F02D00BE0B3
:10205000012536E02068016821F040010160206818
:10206000016841F480410160A16C18480864A16CCA
:102070001748C863A16C1748C864A06C0665E38E56
:102080002268216B0C32A06CFEF7EAFE38B1606D5D
:1020900040F010006065012584F8517011E020685F
:1020A0000168490603D4016841F0400101602068DD
:1020B000416841F0200141602068416841F002011F
:1020C000416084F850602846ADE70000AB45000849
:1020D000B14500088D45000870477047704770474C
:1020E00070477047704710B590F83C20012A22D005
:1020F000012280F83C20CA6800238C6822F44072D8
:1021000022434C6822F4806222430C6822F400626D
:1021100022430C6922F4805222434C6922F400527B
:102120002243C96922F480420A4301684A6480F864
:102130003C30002010BD022010BD000070B590F8AA
:102140003C20012A31D0012680F83C60022280F830
:102150003D2002685468936824F070050C682C4395
:102160005460134C0268A24214D0B2F1804F11D0D7
:10217000104CA2420ED0104CA2420BD00F4CA242E7
:1021800008D00F4CA24205D00E4CA24202D00E4CF9
:10219000A24204D123F080034968194391603C3086
:1021A000467000210170002070BD022070BD00004B
:1021B000000001400004004000080040000C004006
:1021C00000040140004001400018004010B50446E2
:1021D000002C03D094F83D0010B10EE0012010BD9A
:1021E000002084F83C00204602F0A0FDA06C08B955
:1021F0000C48A064A16C20468847022084F83D006A
:10220000211D206802F03CFC01203D3460726070AA
:10221000A070E07020716071A071E0712072207078
:10222000002010BD2922000808B500682B4A2C495F
:10223000904208D1086840F001000860086800F08A
:102240000100009008BD264A264B121F984208D173
:10225000106840F020001060106800F0200000902E
:1022600008BD214B984208D1086840F480300860CE
:10227000086800F48030009008BD1C4B984208D1DB
:10228000086840F400300860086800F400300090EE
:1022900008BD174B984208D1086840F480200860B8
:1022A000086800F48020009008BD1249884208D1D7
:1022B000106840F040001060106800F0400000908E
:1022C00008BD0D498842FBD1106840F080001060C5
:1022D000106800F08000009008BD00000000014080
:1022E00044380240001400400040014000440140D6
:1022F0000048014000180040001C004090F83D10CC
:10230000012901D001207047022180F83D100168A9
:10231000CA6842F00102CA6000681449884214D0B9
:10232000B0F1804F11D0124988420ED01149884235
:102330000BD01149884208D01049884205D0104975
:10234000884202D00F49884209D1816801F0070113
:10235000062908D0016841F00101016003E001682D
:1023600041F00101016000207047000000000140C1
:102370000004004000080040000C00400004014040
:10238000004001400018004070B50446002594F854
:102390003C00012817D0012684F83C60022084F814
:1023A0003D002068826822F0770222F47F4282603A
:1023B0000868502838D00DDC202853D005DC90B3B5
:1023C000102811D14EE0022070BD30284AD040289C
:1023D0000AD13DE0602831D070280CD0B0F5805F84
:1023E00003D0B0F5005F12D001253C3466700020A8
:1023F0002070284670BDCB68D1E90121206802F029
:10240000B2FB2068816841F077018160EDE7CB681D
:10241000D1E90121206802F0A6FB2068816841F41F
:1024200080418160E1E71DE0CA684968206802F0E8
:10243000B3FC5021206802F0A0FBD6E7CA684968C7
:10244000206802F0BAFC6021206802F096FBCCE71D
:10245000CA684968206802F09FFC4021206802F0A9
:102460008CFBC2E722680146104602F086FBBCE7FF
:102470002DE9F04104460D46002C03D094F83D00B0
:1024800018B10FE00120BDE8F081002084F83C0085
:10249000204602F04BFC206F08B926482067216FC8
:1024A00020468847022084F83D002068816844F275
:1024B000070291438160211D206802F0E1FA273470
:1024C00054F8270C81688269066A2B680B4340F236
:1024D00003318A43AF69A96842EA0722114340F6F3
:1024E0000C4291434FF2F0029143EF69EA6841EAEE
:1024F00007210A4329692F6A090141EA073111437B
:1025000026F0220222F088066A686D6946EA0515FF
:102510002A43836054F8270C816154F8270C026227
:102520000120E077E0752076E0762077A075002026
:10253000A9E70000392500082DE9F04186B00446DE
:10254000142101A8FDF7F4FE514A21685048103AC1
:102550000224012603254F4B4F4F4FF0000CB1F1E1
:10256000804F21D0DFF8348141454BD1016841F0E3
:1025700002010160006800F002000090106840F065
:1025800002001060106800F00200009030200190FE
:102590000294CDF80CC00495059401A93846FEF7C5
:1025A00097FC06B0BDE8F081016841F001010160CF
:1025B000006800F001000090106840F00100106019
:1025C000106800F001000090106840F002001060F8
:1025D000106800F0020000904FF400400190029457
:1025E00003960495059601A91846FEF771FC08208C
:1025F0000190029403960495059601A93846FEF7CA
:1026000067FCCEE7264FB94224D1016841F00401AE
:102610000160006800F004000090106840F00800BD
:102620001060106800F0080000904FF440500190D6
:102630000294CDF80CC00495059401A91948FEF741
:1026400047FC002205211E20FFF720F81E20FFF77F
:102650000FF8A6E7144FB942A3D1016841F0080171
:102660000160006800F008000090106840F0010070
:102670001060106800F0010000900195029403962C
:102680000495059401A91846FEF722FC89E700008D
:1026900040380240000002400004024000040040B4
:1026A00000080040000C0240000C004070B50446D9
:1026B00014F83E0F6278237965793E3C02260029A2
:1026C00004D004290DD001281CD115E0012801D126
:1026D000012B01D0012070BD84F83E6084F8426077
:1026E00018E0012A01D1012D01D0012070BD84F82C
:1026F0003F6084F843600DE0012A03D1012B01D132
:10270000012D01D0012070BD04F83E6F6670267166
:1027100066713E3C91B1042916D001220021206847
:1027200002F014FA01220421206802F00FFA206856
:10273000016841F001010160002070BD012200210B
:10274000206802F003FAF2E701220421206802F077
:10275000FDF9ECE770477047704770B50446206894
:1027600001694FF00005C943890719D4C168C943FD
:10277000890715D4E91E016101202077206880694E
:10278000800704D0D4F890102046884707E0D4F89A
:10279000981020468847D4F89C1020468847257713
:1027A00020680169C94349071BD4C168C943490767
:1027B00017D46FF00401016102202077206880693E
:1027C00010F4407F04D0D4F890102046884707E0EA
:1027D000D4F8981020468847D4F89C1020468847A3
:1027E000257720680169C94309071AD4C168C9431C
:1027F000090716D46FF008010161042020772068D2
:10280000C069800704D0D4F890102046884707E0BC
:10281000D4F8981020468847D4F89C102046884762
:10282000257720680169C943C9061BD4C168C9431B
:10283000C90617D46FF010010161082020772068C5
:10284000C06910F4407F04D0D4F890102046884727
:1028500007E0D4F8981020468847D4F89C1020460A
:102860008847257720680169C943C90709D1C1682C
:10287000C943C90705D1891E0161D4F880102046DB
:10288000884720680169C94309060AD4C168C94359
:10289000090606D46FF080010161D4F8B01020461B
:1028A000884720680169C94349060AD4C168C943F9
:1028B000490606D46FF040010161D4F88810204623
:1028C000884720680169C94389060CD4C168C94397
:1028D000890608D46FF0200101612046D4F8A810C1
:1028E000BDE87040084770BD70B586B0044614213D
:1028F00001A8FDF71DFD2F4D216800232E4A02245B
:102900002E48A94214D1116841F0100111601168DC
:1029100001F0100100914FF4D4410191029403930E
:1029200004940121059101A9FEF7D2FA06B070BD09
:10293000234E0325B14211D1116841F010011160FD
:10294000116801F01001009160210191029403933C
:102950000493059501A9FEF7BBFAE7E7194E1A485B
:10296000B14211D1116841F002011160116801F00A
:10297000020100918115019102940393049305953E
:1029800001A9FEF7A5FAD1E7104EB142CED11168E8
:1029900041F002011160116801F00201009171150E
:1029A0000191029403930494059501A9FEF790FA0E
:1029B000BCE7000000000140303802400010024037
:1029C0000040014000440140000402400048014032
:1029D00070B50446002594F83C0001280FD0012072
:1029E00084F83C006AB1042A0FD0082A11D00C2ABE
:1029F00013D00125002084F83C00284670BD022039
:102A000070BD206802F0C2F8F4E7206802F0F2F826
:102A1000F0E7206802F028F9ECE7206802F05CF9A2
:102A2000E8E7704710B50446002C03D094F83D0049
:102A300010B10EE0012010BD002084F83C002046BB
:102A400002F074F9A06D08B90C48A065A16D20468C
:102A50008847022084F83D00211D206802F010F80C
:102A600001203D3460726070A070E0702071607170
:102A7000A071E07120722070002010BD812A000832
:102A8000704770B504460D46002694F83C000128B6
:102A90000FD0012084F83C006AB1042A1FD0082A14
:102AA00032D00C2A44D00126002084F83C00304665
:102AB00070BD022070BD2946206802F067F82068CA
:102AC000816941F0080181612068816921F0040178
:102AD0008161206881692A6911438161E4E729469F
:102AE000206802F087F82068816941F40061816103
:102AF0002068816921F480618161206881692A6987
:102B000041EA02218161CFE72946206802F0ACF852
:102B10002068C16941F00801C1612068C16921F0E4
:102B20000401C1612068C1692A691143C161BBE721
:102B30002946206802F0D0F82068C16941F400619C
:102B4000C1612068C16921F48061C1612068C169E7
:102B50002A6941EA0221C161A6E7000010B50446D6
:102B6000002C03D094F83D0010B10EE0012010BD00
:102B7000002084F83C00204602F0D8F8206E08B906
:102B80000C482066216E20468847022084F83D00CC
:102B9000211D206801F074FF01203D3460726070D7
:102BA000A070E07020716071A071E07120722070DF
:102BB000002010BDB92B0008704770477047000017
:102BC00010B50446002909D004290AD008290BD0E1
:102BD00094F8410001280AD0012010BD94F83E006D
:102BE000F8E794F83F00F5E794F84000F2E7022098
:102BF000A9B3042937D0082938D084F8410001222C
:102C0000206801F0A3FF1E4920681E4A884201D0B7
:102C1000904203D1436C43F40043436420688842EC
:102C200013D0B0F1804F10D0174988420DD017490A
:102C300088420AD01649884207D0904205D01549EB
:102C4000884202D01449884213D1816801F00701FB
:102C5000062912D0016841F0010101600DE0FFE793
:102C600084F83E00CBE784F83F00C8E784F84000D2
:102C7000C5E7016841F001010160002010BD0000BE
:102C80000000014000040140000400400008004032
:102C9000000C0040004001400018004030B50446E0
:102CA0000D4600222946206801F050FF184A41F2E3
:102CB000111120688B10904202D0164A904209D11F
:102CC000026A0A4206D1026A1A4203D1426C22F415
:102CD000004242642068026A0A4206D1016A19422F
:102CE00003D1016821F00101016001203DB1042DF3
:102CF00008D0082D09D084F84100002030BD84F8A8
:102D00003E00FAE784F83F00F7E784F84000F4E774
:102D1000000001400004014000680349884201D1DD
:102D2000FEF71CBC70470000002000407047704751
:102D3000704738B5044694F83E00202801D00220A0
:102D400038BD71B16AB194F83C0001280BD0012064
:102D500084F83C002063204602F08AFA014621B143
:102D600007E0012038BD022038BD206B012802D0C9
:102D70000121084638BD206802684068009020683C
:102D80000C3050E8002F42F0100240E80023002BE6
:102D9000F5D1EEE77047704770B5044620680C30F7
:102DA00050E8001F21F4907140E80012002AF5D18C
:102DB0002068143050E8001F21F0010140E80012A3
:102DC000002AF5D1206B012809D120680C3050E889
:102DD000001F21F0100140E80012002AF5D1206800
:102DE00040694FF00005400615D52068143050E8C2
:102DF000001F21F0400140E80012002AF5D1A06B2D
:102E000048B10565A06BFDF77DFE20B1A06BFDF715
:102E1000D2FE202806D0E585202084F83E002563D8
:102E2000002070BD10202064032070BD70477047E3
:102E300070470000F8B5044622681068D1685369ED
:102E400000F00F06002E08D1850606D58D0604D5A4
:102E50002046BDE8F84002F01DB90025002E6AD0DA
:102E600003F0010601F49077374364D0C20705D020
:102E7000CA0503D5226C42F001022264420705D53F
:102E8000DA0703D0226C42F002022264820705D5E1
:102E9000DA0703D0226C42F004022264020707D54D
:102EA00001F02002324303D0226C42F00802226477
:102EB000226C002A3ED0800604D5880602D5204622
:102EC00002F0E8F820684069C0F38010216C09071F
:102ED00000D458B3204602F075F8206840694006D7
:102EE0001ED52068143050E8001F21F0400140E852
:102EF0000012002AF5D1A06B60B15C490165A06B9E
:102F0000FDF747FE002815D0A06B016D01B0BDE8AC
:102F1000F0400847616D01B02046BDE8F040084729
:102F2000616D01B02046BDE8F0400847616D204664
:102F300088472564F8BD236B012B7DD1C3067BD563
:102F4000CB067FD510685068009050694FF0200381
:102F5000400645D5A16B0868406880B20028E9D0DA
:102F6000A28D8242E6D9E085C869B0F5807F2DD078
:102F700020680C3050E8001F21F4807140E80012F6
:102F8000002AF5D12068143050E8001F21F001011B
:102F900040E80012002AF5D12068143050E8001FE4
:102FA00021F0400140E80012002AF5D184F83E30BB
:102FB000256320680C3050E8001F21F0100140E824
:102FC0000012002AF5D1A06BFDF79CFDA08DE18DCC
:102FD000A26E401A81B201B02046BDE8F040104711
:102FE000A08DE18D401A81B2E08D0028A2D0002989
:102FF000A0D020680C3050E8002F22F4907240E8F6
:103000000026002EF5D12068143050E8002F22F061
:10301000010240E80026002EF5D184F83E302563F9
:1030200020680C3050E8002F22F0100240E8002306
:10303000002BF5D1204600E004E0A26E01B0BDE80F
:10304000F0401047020606D50A0604D52046BDE822
:10305000F84002F059B940067FF56CAF4806FBD541
:103060002046BDE8F84001F0D4BF0000994E0008AA
:1030700070B50446002C04D094F83D00002510B132
:103080000DE0012070BD84F83C50204601F0DCFFCB
:10309000E06E08B91348E066E16E204688472420B8
:1030A00084F83D002068C16821F40051C1602046C9
:1030B00002F054F82068016921F490410161206810
:1030C000416921F02A0141612068C16841F4005141
:1030D000C1602564202084F83D0084F83E00002073
:1030E00070BD0000E93000082DE9F04186B00546CA
:1030F000142101A8FDF71CF9464B28684649032214
:103100000026984228D144481030036843F48013C5
:103110000360006800F480100090086840F004002C
:103120000860086800F004000090881401901220E4
:103130000290039604920820059001A93748FDF7F4
:10314000C7FE002205213520FEF7A0FA3520FEF744
:103150008FFA06B0BDE8F081314B9842F9D12E4884
:103160001430036843F010030360006800F010009F
:103170000090086840F001000860086800F0010055
:1031800000904FF4C06001900220029003960492D8
:103190000720059001A92348FDF79AFE234C2248F9
:1031A00020604FF00068C4F80480A660E660071550
:1031B00027616661A661E661F801206266622046C9
:1031C000FDF7E4FD08B1FDF799FAAC63A563164875
:1031D000164C783060342060C4F804804020A06031
:1031E000E66027616661A661E66180022062666230
:1031F0002046FDF7CBFD08B1FDF780FA6C63A563AF
:10320000002205212520FEF741FA2520FEF730FA9D
:103210009FE70000005000403038024000080240A4
:10322000001001400000024040640240B00F002046
:1032300010B50023002A17D090F83C40012C19D07B
:10324000012480F83C4090F83D40202C14D090F8A8
:103250003D4074B3016C41F0200101640123002161
:1032600080F83C10184610BD016C41F0200101644B
:10327000012010BD022010BD0D291DD2DFE801F094
:1032800007090B0D0F1113151C1C1C171A004264A3
:10329000E5E78264E3E7C264E1E70265DFE74265F0
:1032A000DDE78265DBE7C265D9E70266D7E7C2667C
:1032B000D5E707E00267D2E7016C41F02001016425
:1032C0000123CCE70B2907D00C2907D0016C41F072
:1032D000200101640123C2E7C266C0E70267BEE7BE
:1032E0000022002914D090F83C30012B16D0012385
:1032F00080F83C3090F83D30202B11D0016C41F02B
:10330000200101640122002180F83C101046704722
:10331000016C41F0200101640120704702207047D8
:103320008166F0E770477047F7B5044694F83D00B2
:10333000202801D00220FEBD019999B392B394F8E0
:103340003C00012831D0012084F83C002162A28495
:10335000E28400252564212084F83D00636B144835
:10336000D863636B13481864636B1348D864606B4D
:10337000056526681346361D3246606BFDF770FD05
:1033800021686FF04000086084F83C5020681430D9
:1033900050E8001F41F0800140E80012002AF5D1FA
:1033A0000020FEBDFFE70120FBE70220F9E7000057
:1033B000814F0008BF4F0008A54E000870477047B6
:1033C000FEE701684A69D24352050FD46FF4806268
:1033D0004A61002140F8301F202242738173026944
:1033E00042F004020261017301207047002070471F
:1033F000F8B504460D4617461E46E06A082808D070
:10340000012806D010F5803F03D0206B122806D08B
:103410000AE02068016841F48071016004E02068DE
:10342000016841F4807101603B4600224FF00111B8
:103430002046009600F08BF840B120680068C00577
:1034400002D54FF4007020640320F8BD2069B0F568
:10345000804F0FD005F44070F02141EAD010216870
:10346000086133463A460D49204600F0ADF830B1C8
:103470000120F8BD216805F0FE00086102E0216826
:10348000E8B20861054933463A46891F204600F0F4
:103490009BF808B10120F8BD0020F8BD080001002C
:1034A00000B585B014216846FCF742FF4FF4006078
:1034B00000900020019001200290032003906946B3
:1034C0000248FDF705FD05B000BD00000004024004
:1034D00000B585B014216846FCF72AFF4FF4006060
:1034E0000090012001900020029003200390694683
:1034F0000248FDF7EDFC05B000BD000000040240ED
:1035000070B504460D4616460DE02046FFF759FFFC
:1035100008B1012070BD681C05D0FDF7CFFD801BF0
:10352000A84207D835B120684069C0434007ECD4B1
:10353000002070BD002044F8300F20216173A0737B
:10354000216941F0200121612073012070BD2DE926
:10355000F0470446DDF820900E4690461D46C6F31F
:10356000074708E0681C06D0FDF7A8FDA0EB09009E
:10357000A8420FD875B1012F19D02068806926EABA
:1035800000000004000C1DD000204045EAD00020BF
:10359000BDE8F087002044F8300F20216173A0734C
:1035A000216941F02001216120730120F0E72068AA
:1035B000406926EA00000004000C01D00020E4E786
:1035C0000120E2E70120E0E72DE9F04704460E463E
:1035D000154698464FF000094FF0200AC6F30747FA
:1035E00025E020684069C043400517D42068016881
:1035F00041F40071016021686FF480604861C4F893
:10360000309084F83DA084F83E90206C40F0040097
:10361000206484F83C900120BDE8F087681C06D047
:10362000FDF74CFDA0EB0800A8420BD855B1012FC7
:1036300016D02068806926EA00000004000CD0D172
:103640000020E9E7C4F8309084F83DA084F83E906B
:10365000206C40F02000206484F83C900120DBE7DF
:103660002068406926EA00000004000CE8D0B8E7B2
:1036700070B504460D4616460DE02046FFF7A1FE44
:1036800008B1012070BD681C05D0FDF717FD801B37
:10369000A84207D835B120684069C0430006ECD481
:1036A000002070BD002044F8300F20216173A0730A
:1036B000216941F0200121612073012070BD2DE9B5
:1036C000F04106460F4615461C4600F009F9304603
:1036D00000F0D4F800F04EF910B10120BDE8F081FF
:1036E000384600F0CBF800F045F908B10120F5E7C5
:1036F00000F0F6F846F0010000F0C0F800F03AF9EA
:1037000060B10120EAE7012C01D9012000E000208E
:1037100000F07EF805F8010B641EE4B2002CF2D133
:1037200000F002F90020D9E72DE9F04104460F46E8
:1037300015461E4600F0D4F8204600F09FF800F031
:1037400019F910B10120BDE8F081384600F096F873
:1037500000F010F908B10120F5E700240AE0285D27
:1037600000F08CF800F006F918B100F0DDF8012047
:10377000E9E7641CB442F2DB00F0D6F80020E2E78F
:1037800070B5104D4FF48064002221462846FDF7A5
:103790008EFCFFF79DFE002261002846FDF787FCA6
:1037A0000220FCF791FF012221462846FDF77FFC0D
:1037B0000220FCF789FF21462846BDE87040002220
:1037C000FDF775BC0004024070B5104D4FF48064E5
:1037D000002221462846FDF76AFCFFF779FE012208
:1037E000D1022846FDF763FC0220FCF76DFF0122A1
:1037F00021462846FDF75BFC0220FCF765FF2146C9
:103800002846BDE870400022FDF751BC000402408C
:103810002DE9F047804600250024FFF741FE164FB2
:103820004FF480664FF40069002231463846FDF7B8
:103830003EFC0220FCF748FF012231463846FDF7E6
:1038400036FC6006040E49463846FDF729FC08B1EF
:10385000641CE4B20120FCF737FF6D1CEDB2082DAB
:10386000E2D3B8F1000F04D0FFF78AFF2046BDE88D
:10387000F087FFF7A9FFF9E7000402402DE9F041C6
:1038800005460024FFF724FE144F4FF48066002203
:1038900031463846FDF70BFC4FF40068EA09414613
:1038A0003846FDF704FC6806050E0220FCF70CFF05
:1038B000012231463846FDF7FAFB0220FCF704FFEF
:1038C000002231463846FDF7F2FB0220FCF7FCFEF1
:1038D000641CE4B2082CE1D3BDE8F081000402408E
:1038E00070B5FFF7F5FD01220E4DD40221462846A2
:1038F000FDF7DDFB0122960231462846FDF7D7FB96
:103900000420FCF7E1FE002221462846FDF7CFFB0C
:103910000420FCF7D9FE31462846BDE8704000225D
:10392000FDF7C5BB0004024070B5FFF7D1FD104D97
:103930004FF48064002221462846FDF7B8FB66005C
:10394000002231462846FDF7B2FB0420FCF7BCFEFE
:10395000012221462846FDF7AAFB012231462846CE
:10396000FDF7A5FBBDE870400420FCF7ADBE0000EC
:10397000000402402DE9F0410024FFF791FD0122EF
:10398000144DD60231462846FDF791FB0120FCF785
:103990009BFE0122970239462846FDF788FB01204D
:1039A000FCF792FE08E0641CE4B2FA2C04D9FFF79D
:1039B000BBFF0120BDE8F08131462846FDF770FBD2
:1039C0000028F0D1002239462846FDF770FB002080
:1039D000F0E70000000402407FB500210091019152
:1039E000029103911948184A02604FF44032426034
:1039F000816001240461017680F82010C162144ABC
:103A00008262C1600225C56180F830104161FCF717
:103A100026FF08B1FCF772FE1120009001940720E8
:103A2000029069460948FCF76BFE08B1FCF766FE98
:103A300008200090019569460448FCF761FE0028C3
:103A400001D0FCF75BFE7FBD002001402405002073
:103A50000100000F10B50749054808600846FDF74A
:103A60002BF8002803D0BDE81040FCF747BE10BD7E
:103A7000003002404C00002008B51148016841F4B4
:103A800080010160006800F48000009000220521A0
:103A90003A20FDF7FBFD3A20FDF7EAFD0022052163
:103AA0003B20FDF7F3FD3B20FDF7E2FD0022052161
:103AB0004620FDF7EBFDBDE808404620FDF7D8BDE8
:103AC0003038024010B5434803F042FB424C60637B
:103AD000404A01211032084603F0DCFBA0633D4A56
:103AE00001212032084603F0D5FBE063394A012169
:103AF0003032084603F0CEFB2064364A01214032C2
:103B0000084603F0C7FB6064324A01215032084680
:103B100003F0C0FBA0642F4B0022403B01212F4843
:103B200003F09CFC60622B4B0022303B01212C48AF
:103B300003F094FCA062274B0022203B012129487E
:103B400003F08CFCE062234B0022103B012126484D
:103B500003F084FC20631F4A0421703A402003F0E4
:103B600053FAE0611B4A0121583A202003F04CFA35
:103B700020621E4A00211E4803F012FC20601B4AEE
:103B8000002124321B4803F00BFC6060174A00211F
:103B90004832194803F004FCA060144A00216C323A
:103BA000164803F0FDFBE060104A002190321448F3
:103BB00003F0F6FB20610D4A0021B432114803F0F6
:103BC000EFFB6061034A0021943A0F4803F0E8FBE1
:103BD000A06110BD5CBB0008000000204D5E000825
:103BE000F9650008056000084D5B0008F0B90008A1
:103BF00035470008C5640008117E0008597A00089E
:103C0000BD640008F1590008816E00082DE9F04FED
:103C100087B0142102A8FCF78BFB00246A480168D6
:103C200041F010010160016801F01001019101688B
:103C300041F004010160016801F004010191016893
:103C400041F080010160016801F08001019101688B
:103C500041F001010160016801F001010191016879
:103C600041F002010160016801F002010191016867
:103C700041F008010160006800F008000190002296
:103C80004FF4CA515148FDF712FADFF844A14FF43E
:103C90004067002239465046FDF709FA01227910A3
:103CA0004C48FDF704FA00224FF400614948FDF743
:103CB000FEF9DFF824B14FF48078012241465846DE
:103CC000FDF7F5F94FF40079002249465846FDF713
:103CD000EEF949F29C50029003250395049402A941
:103CE0003E48FDF7F5F84EF6FF4002900395049428
:103CF00002A95846FDF7ECF81C20029003950494A5
:103D000002A93248FDF7E4F84FF4A07002900126B2
:103D100003960494059502A92C48FDF7D9F84EF2B4
:103D2000060002900395049402A95046FDF7D0F8CE
:103D3000029703960494059402A95046FDF7C8F82B
:103D4000300302904FF4881003900227049702A9D1
:103D50005046FDF7BDF84CF2FF1002900395049415
:103D600002A91C48FDF7B4F84FF460600290039676
:103D70000494059602A91748FDF7AAF8CDF8088023
:103D800003960494059402A95846FDF7A1F8CDF8CE
:103D9000089003960494059702A95846FDF798F8F1
:103DA000E802029003960494059702A90748FDF7DC
:103DB0008FF802950394049402A90848FDF788F847
:103DC00007B0BDE8F08F000030380240000002402C
:103DD00000040240000C02400008024000100240B3
:103DE00010B50D480B4901600C494160002181600C
:103DF000C1604FF48042026141618161C161016231
:103E0000FDF7D4F9002803D0BDE81040FCF776BCDC
:103E100010BD000000540040CC050020A086010029
:103E200010B50948074901600321416013218160F1
:103E3000FDF760FB002803D0BDE81040FCF75EBC36
:103E400010BD0000003000402006002010B5002208
:103E500005211C20FDF71AFC1C20FDF709FC00229F
:103E600005211D20FDF712FC1D20FDF701FC00229D
:103E700005212820FDF70AFC2820FDF7F9FB002288
:103E800005212B20FDF702FC2B20FDF7F1FB002282
:103E900005212C20FDF7FAFB2C20FDF7E9FB002281
:103EA00005213220FDF7F2FB3220FDF7E1FB002275
:103EB00005213720FDF7EAFBBDE810403720FDF76C
:103EC000D7BB000010B510480E4901604FF4827155
:103ED000416000218160C160016141614FF4007265
:103EE00082611822C2610162416281620A21C1625B
:103EF000FDF794FF002803D0BDE81040FCF7FEBB9F
:103F000010BD0000003001402C06002010B588B024
:103F10001C2101A8FCF70CFA16481549016040F273
:103F2000473141600024846040F2E731C1600461A0
:103F300080218161FEF74AF908B1FCF7DFFB0D48EB
:103F4000FEF70CFE08B1FCF7D9FB6020019002944B
:103F5000039404200590002201A90648FEF791FD74
:103F600008B1FCF7CBFB0348FEF7BEFC08B010BD60
:103F700000440140F80B002010B588B01C2101A8B6
:103F8000FCF7D6F916481549016040F24731416007
:103F90000024846040F2E731C160046180218161C6
:103FA000FEF714F908B1FCF7A9FB0D48FEF7D6FDA2
:103FB00008B1FCF7A3FB6020019002940394042055
:103FC0000590002201A90648FEF75BFD08B1FCF749
:103FD00095FB0348FEF788FC08B010BD004801407F
:103FE000AC0C002030B58BB00024079408940994E1
:103FF0000A941C216846FCF79BF91C4D1A4828605E
:1040000040F247306860AC606320E8602C6180203B
:10401000A8612846FEF7DAF808B1FCF76FFB4FF409
:104020008050079007A91148FEF7AEF908B1FCF7D8
:1040300065FB0E48FEF7F6FC08B1FCF75FFB009449
:104040003220019002940494002269460748FEF74A
:10405000BFFC08B1FCF752FB2868816941F00801F8
:1040600081610BB030BD000000180040600D0020E1
:1040700010B588B01C2101A8FCF75AF91348124961
:104080000160532141600024846041F28731C160A6
:1040900004618461FEF79AF808B1FCF72FFB0B4826
:1040A000FEF7C0FC08B1FCF729FB019402940394CD
:1040B0000594002201A90548FEF78AFC002801D0DA
:1040C000FCF71CFB08B010BD001C0040140E0020C3
:1040D00010B596B00024129413941494159410946F
:1040E00011941C2109A8FCF723F9202101A8FCF751
:1040F0001FF936483449016040F24731416084601D
:1041000040F2E731C1600461446180218161FEF7C2
:104110005DF808B1FCF7F2FA4FF48050129012A942
:104120002A48FEF731F908B1FCF7E8FA2748FEF70C
:1041300015FD08B1FCF7E2FA1094119410A9234878
:10414000FDF7FCFF08B1FCF7D9FA602009900A944A
:104150000B940C9404200D900E940F94002209A946
:104160001A48FEF78EFC08B1FCF7C8FA042209A928
:104170001648FEF786FC08B1FCF7C0FA082209A928
:104180001248FEF77EFC08B1FCF7B8FA0C2209A928
:104190000E48FEF776FC08B1FCF7B0FA01940294E1
:1041A0000394049405944FF400500690089401A9D8
:1041B0000648FDF798FF08B1FCF7A0FA0348FEF7A0
:1041C00093FB16B010BD0000000001400C0700205A
:1041D00010B58CB0242103A8FCF7AAF800240194A0
:1041E000029415484FF080410160446084604EF6AF
:1041F0006021C160046180218161032003900494E7
:104200000120059006940794089409900A940B9451
:1042100003A90948FEF72CF908B1FCF76FFA0194DD
:10422000029401A90448FDF789FF002801D0FCF79A
:1042300065FA0CB010BD0000C007002010B58CB0AE
:10424000242103A8FCF774F8002401940294154873
:1042500013490160446084604EF66021C1600461CE
:10426000802181610320039004940120059006942D
:104270000794089409900A940B9403A90948FEF73F
:10428000F7F808B1FCF73AFA0194029401A905483D
:10429000FDF754FF002801D0FCF730FA0CB010BD38
:1042A000000400407408002010B58CB0242103A83D
:1042B000FCF73EF80024019402941548134901606C
:1042C000446084604EF66021C16004618021816198
:1042D0000320039004940120059006940794089409
:1042E00009900A940B9403A90948FEF7C1F808B194
:1042F000FCF704FA0194029401A90548FDF71EFF9A
:10430000002801D0FCF7FAF90CB010BD00080040FD
:104310002809002010B58CB0242103A8FCF708F868
:10432000002401940294154813490160446084609C
:104330004EF66021C16004618021816103200390F9
:1043400004940120059006940794089409900A9417
:104350000B9403A90948FEF78BF808B1FCF7CEF9D6
:104360000194029401A90548FDF7E8FE002801D058
:10437000FCF7C4F90CB010BD000C0040DC090020B3
:104380001CB50024009401940E480D49016053218E
:104390004160846042F20F71C16080218161FDF74C
:1043A00015FF08B1FCF7AAF9009401946946054885
:1043B000FDF7C4FE002801D0FCF7A0F91CBD0000E9
:1043C00000140040900A002010B58CB0002408941E
:1043D00009940A940B941C2101A8FBF7A9FF1F481C
:1043E0001D49016040F247314160846040F2E7318D
:1043F000C160046180218161FDF7E8FE08B1FCF72E
:104400007DF94FF48050089008A91448FDF7BCFFCF
:1044100008B1FCF773F91148FEF7A0FB08B1FCF7EF
:104420006DF960200190029403940420059000220D
:1044300001A90A48FEF725FB08B1FCF75FF9042241
:1044400001A90648FEF71DFB08B1FCF757F9034820
:10445000FEF74AFA0CB010BD00400140440B0020AA
:1044600010B50C480A4901604FF4E1314160002168
:104470008160C16001610C2242618161C161FCF710
:1044800055FE002803D0BDE81040FCF737B910BD39
:1044900000500040C80E002010B50C480A490160C9
:1044A0000B49416000218160C16001610C224261C1
:1044B0008161C161FEF7DCFD002803D0BDE810403A
:1044C000FCF71CB910BD0000001001403C0F00209B
:1044D00040420F00FEE7FDF72DFAFEE700F07EBF39
:1044E00070B504460D461646064B1B78002B01D1CD
:1044F00000F074FF324629462046BDE8704000F0C7
:1045000003B80000F8C9002070B50E4614461849DB
:1045100000EB400001EBC00518356869002806D0A3
:10452000012811D002281BD00024204670BD284647
:1045300000F088FFA04201D20024F6E7224631466F
:10454000284600F0B9FFF0E7284600F07BFFA042C4
:1045500000D2044622463146284600F0ADFFE4E78B
:1045600022463146284600F079FF0446DDE7000088
:10457000F8C900200148FDF7CDBB00002C06002043
:10458000806B0021C187C186016F0847806B01687D
:104590004A6822F003024A60416D41F01001416512
:1045A000012180F85110016F0847806B416E084768
:1045B00038B50546AC6BFCF781FD024628680068FB
:1045C000C00525D42068416821F0200141602068A1
:1045D000416821F0020141606421204600F01EF88C
:1045E00018B1606D40F020006065A068002118B926
:1045F0002068C26880680090E186012084F851003C
:10460000606D28B1216F01B02046BDE830400847F9
:10461000A16D01B02046BDE8304008477CB5044696
:104620001348144D0068B0FBF5F04FF47A756843F9
:1046300001906068B0F5827F0DD10B460092002298
:104640008021204600F018F878B1606D40F020001D
:10465000606503207CBD019838B10198401E01902F
:1046600020688068C0430006F5D500207CBD0000AE
:104670005800002000366E012DE9F84304460F462D
:1046800091461E46089DFCF719FD401B351AFCF7A4
:1046900015FD804626480068C0F3CB306843009083
:1046A0003AE0701C38D0FCF709FDA0EB0800A842E6
:1046B00003D215B1009858B32BE02068416821F06F
:1046C000E00141606068B0F5827F0BD1A068B0F571
:1046D000004F02D0B0F5806F04D12068016821F04E
:1046E00040010160A06AB0F5005F09D1206801684F
:1046F00021F4005101602068016841F4005101601B
:10470000012050346070002020700320BDE8F88341
:1047100000250098401E00902068806837EA00005D
:1047200004D000204845BCD10020EFE70120F9E784
:1047300058000020012002F0F3FBFBE710B54FF01A
:10474000E020006906F018FF012803D0BDE8104002
:1047500006F012BA10BD000030B593B0302107A8A2
:10476000FBF7E6FD142102A8FBF7E2FD00251F4838
:10477000016841F080510160006800F080500190B4
:104780001B48016841F480410160006800F48040EA
:104790000190092007904FF48030089001200C9080
:1047A00002240D9480050E9008200F90A8201090F0
:1047B00011940720129007A8FDF7CAF808B1FBF77B
:1047C0009DFF0F200290039404954FF4A050059094
:1047D0004FF480500690052102A8FCF78BFF08B12A
:1047E000FBF78CFFFDF72CF813B030BD40380240CA
:1047F000007000400548016841F470010160034900
:104800004FF00060803908607047000088ED00E0DC
:104810000E4908680269D243D2070ED1921E026186
:1048200008680068C1060A48406807D5D0E9021246
:10483000491E42F1FF32C0E902127047D0E902126C
:10484000491C42F10002C0E902127047C007002073
:1048500054D300200E4908680269D243D2070ED112
:10486000921E026108680068C1060A48C06807D540
:10487000D0E90212491E42F1FF32C0E9021270472C
:10488000D0E90212491C42F10002C0E9021270474D
:104890007408002054D300200E4908680269D243EE
:1048A000D2070ED1921E026108680068C1060A484C
:1048B000806807D5D0E90212491E42F1FF32C0E9F3
:1048C00002127047D0E90212491C42F10002C0E90D
:1048D000021270472809002054D300200E490868AE
:1048E0000269D243D2070ED1921E026108680068A5
:1048F000C1060A48006807D5D0E90212491E42F1F4
:10490000FF32C0E902127047D0E90212491C42F19D
:104910000002C0E902127047DC09002054D30020D5
:1049200070B52DED028B1E4800680169C943C907A7
:1049300032D1891E01611B480068426A1A4D9FED01
:104940001B8A00232868B0EE480A01F01BFD1848B6
:104950000068426A0023B0EE480A686801F012FD60
:1049600014480068426A0023B0EE480AA86801F0C3
:1049700009FD11480068426A0023B0EE480AE86861
:1049800001F000FD0024B0EE480A55F8240001F0C3
:1049900093FC641C042CF6DBBDEC028B70BD0000A4
:1049A000900A0020DC09002054D300200AD7233CC1
:1049B000C0070020280900207408002070B50F4CA3
:1049C000216808690E4DC043C00706D1801E0861EA
:1049D000012240212846FCF76AFB21680869C04390
:1049E000800709D46FF0020008612846BDE87040D6
:1049F00000224021FCF75BBB70BD0000600D002071
:104A0000000002400148FDF7A8BE00007010002021
:104A100070B5184E30680169174DC943174C8907A6
:104A20000DD46FF002010161206855F82000416A41
:104A300000208847206803281AD0401C2060306876
:104A40000169C943C90712D1891E0161206855F85F
:104A50002000416A01208847206855F8200004F0B2
:104A600047F82068316855F820000069486370BD38
:104A70000020E3E7140E0020C0D6002054000020E0
:104A80002DE9F0410268264D264E274FDFF89CC0E5
:104A9000274B4FF08048A84209D0404507D0B0428C
:104AA00005D0B84203D0604501D0984203D122F02E
:104AB00070044A682243A8421BD0404519D0B04236
:104AC00017D0B84215D0604513D0984211D0194C78
:104AD000A0420ED0184CA0420BD0184CA04208D0D7
:104AE000174CA04205D0174CA04202D0164CA04251
:104AF00003D122F44074CA6822434C6922F0800238
:104B0000224302608A68C2620A688262A84201D0B7
:104B1000984201D10969016301214161BDE8F08139
:104B2000000001400004004000080040000C00406C
:104B300000040140004001400044014000480140A1
:104B400000180040001C00400020004010B501F09B
:104B50001F0101238B40046A9C430462036A8A405C
:104B60001343036210BD10B5846824F47F4442EA05
:104B700003220A432243826010BD826822F0700241
:104B80000A4342F00701816070470000F0B5026AF5
:104B900022F001020262026A4368846924F0700410
:104BA00024F003050C682C4322F002058A682A438E
:104BB0000E4E0F4FB04201D0B84205D122F0080589
:104BC000CA682A4322F00402B04201D0B84207D199
:104BD00023F4807323F400734D691D438B692B43C9
:104BE00043608461496841630262F0BD0000014096
:104BF00000040140F0B5026A22F010020262036A6A
:104C00004268846924F4E04424F440740D6844EA62
:104C1000052423F020038D6843EA0513104D114E3F
:104C2000A84201D0B04206D123F08003CF6843EA06
:104C3000071323F04003A84201D0B04209D122F467
:104C4000806222F400624D6942EA85028D6942EA7F
:104C5000850242608461496881630362F0BD00009F
:104C60000000014000040140F0B5026A22F48072A5
:104C70000262026A4368C46924F0700424F00305E8
:104C80000C682C4322F400728D6842EA0522104D14
:104C9000104EA84201D0B04206D122F40062CF6883
:104CA00042EA072222F48062A84201D0B04209D130
:104CB00023F4805323F400534D6943EA05138D69AF
:104CC00043EA05134360C4614968C1630262F0BDF1
:104CD000000001400004014030B5026A22F4805215
:104CE0000262046A4268C36923F4E04323F4407318
:104CF0000D6843EA052324F400548D6844EA053422
:104D0000084DA84202D0084DA84204D122F48042A6
:104D10004D6942EA85124260C361496801640462D8
:104D200030BD000000000140000401400D4940F882
:104D3000801F0D4941600D4981600D49C1600D49D9
:104D400001610D4941610D4981610D49C1610D4903
:104D500001620D4941620D4981620D49C1620D49EF
:104D600001637047192D00082D2D00082F2D000814
:104D7000312D00085727000859270008232A00086A
:104D8000BB2B0008BD2B000855270008E3200008B6
:104D9000E5200008E120000810B5036A046A24F049
:104DA00001040462846924F0F00444EA021423F04C
:104DB0000A020A438461026210BD10B5036A23F03F
:104DC000100303628469036A24F4704444EA0232E3
:104DD00023F0A00343EA01118261016210BD10B506
:104DE00003F052FE002804D006C8BDE8104010466B
:104DF000084710BD70B5254C20680168244DC94393
:104E000089060CD46FF02001016020684068C1B2AF
:104E1000204804F093F910B9286802F095FA206848
:104E20000168C9434A061B4912D46FF04002026070
:104E300091F8280018B1286802F086FA02E01348B9
:104E4000FCF742F92068C16821F04001C16070BDE3
:104E50000268D243120613D46FF080020260CA7D4A
:104E6000486AD21C904206D2421C08444A62216819
:104E7000007D486004E02068C16821F08001C160C5
:104E8000BDE870400148FDF7D5BF0000C80E002006
:104E900048000020A06F0120806B0021C185C184E3
:104EA000416D084770B5846B20684069C0F3C0103D
:104EB00094F83D100025212904D118B1E58420463D
:104EC00000F0B4F820684069C0F3801094F83E10F8
:104ED000222904D118B1E585204600F073F8206C32
:104EE00040F0100020642046616DBDE87040084726
:104EF0000146886B09680968C9052FD40021C1855E
:104F000001680C3151E8002F22F4807241E800233F
:104F1000002BF5D10168143151E8002F22F0010275
:104F200041E80023002BF5D10168143151E8002F2E
:104F300022F0400241E80023002BF5D1202180F827
:104F40003E10016B012909D101680C3151E8002F95
:104F500022F0100241E80023002BF5D1016B01295A
:104F600001D0016D0847826E818D1047806B016B07
:104F7000012901D0C16C0847818D826E4908104714
:104F80000146886B09680968C90516D40021C184E7
:104F90000168143151E8002F22F0800241E800231B
:104FA000002BF5D101680C3151E8002F42F040028E
:104FB00041E80023002BF5D17047816C0847806BD6
:104FC000416C084701680C3151E8002F22F49072BF
:104FD00041E80023002BF5D10168143151E8002F7E
:104FE00022F0010241E80023002BF5D1016B0129D9
:104FF00009D101680C3151E8002F22F0100241E87C
:105000000023002BF5D1202180F83E100021016300
:10501000704710B50168CA6822F04002CA602021BA
:1050200080F83D10816C8847002010BD01680C316C
:1050300051E8002F22F0C00241E80023002BF5D1F7
:10504000202180F83D107047094941640949816475
:105050000949C164094901650949416509498165F1
:105060000949C1650949016609498166704700001F
:10507000BF330008BD33000827330008253300087C
:10508000312E0008972D00082F2E00082D2E000825
:10509000952D000808B590F83E10222901D0022075
:1050A00008BD82684FF480539A4201D1016921B151
:1050B000816A9A421DD052B10BE0816A026852683F
:1050C000C2F308020A80816A891C816209E00269D0
:1050D0007AB10268526802F07F020A70816A491C44
:1050E0008162C18D491E0904090CC18505D00020CB
:1050F00008BD026852680A70F0E70168CA6822F0C9
:105100002002CA600168CA6822F48072CA6001681D
:105110004A6922F001024A61202180F83E10016BA9
:10512000012903D0016D8847002008BD00210163DB
:1051300001680C3151E8002F22F0100241E80023F1
:10514000002BF5D101680A68D20602D50A684968C1
:105150000091826E818D9047E6E700002DE9F041D5
:10516000044620680169E26821F44051114301615D
:10517000A1682069E2690143606910430143206826
:10518000C26849F20C639A430A43C26020684169CD
:10519000A26921F44071114341613349206888427A
:1051A00002D03249884202D1FCF784FB01E0FCF7CF
:1051B00071FBE1690023192764253226B1F5004F00
:1051C00028D061688B0F8A00A0FB0701FBF758F815
:1051D0000146B0FBF5F07A42504301EB800006EB4C
:1051E0000010B0FBF5F000F0F002B1FBF5F002EBBF
:1051F0000012B1FBF5F07B42584301EB800006EB57
:105200000010B0FBF5F0216800F00F00104488603A
:10521000BDE8F08161684A18A0FB07015B41FBF71C
:105220002FF80146B0FBF5F00201B1FBF5F06FF08D
:105230001803584301EB800006EBC000B0FBF5F00B
:1052400000F0F80002EB4002B1FBF5F0584301EB2F
:10525000800006EBC000B0FBF5F0216800F007000D
:1052600010448860D4E700000010014000140140A1
:1052700037B582B004461346039AA262A38500257F
:105280002564222084F83E00A16B1C48C863A16BF2
:105290001B480864A16B1B48C864A06B05652168A6
:1052A000A06B091DFBF7DCFD2068016840680190D8
:1052B00084F83C50206948B120680C3050E8001F49
:1052C00041F4807140E80012002AF5D120681430C2
:1052D00050E8001F41F0010140E80012002AF5D11A
:1052E0002068143050E8001F41F0400140E80012EF
:1052F000002AF5D105B0002030BD0000F14E0008B5
:105300006D4F0008A54E000890F83D10212901D0EE
:10531000022070478168B1F5805F01D1016961B1F8
:10532000016A4A1C0262026809785160C18C491EF8
:105330000904090CC1840AD013E0016A02680988D3
:10534000C1F308015160016A891C0162EEE701683E
:10535000CA6822F08002CA600068C16841F040015A
:10536000C1600020704700000349002081F83C0024
:105370000846FDF75FBD00003C0F0020FEE700007F
:1053800010B51448FCF7E3F830211348FAF7D0FFC2
:105390001048FCF7DCF80A2001F0C2FD0E48182185
:1053A0003030FAF7C5FF0B48FCF7D1F803F070FD79
:1053B00000240848FCF7CBF80A2001F0B1FD641C7A
:1053C000022CF6DBC022BDE8104030210248FAF77B
:1053D000A8BF000020060020F4D2002010B5124C17
:1053E00003202061606111A0A06104F1A800E061C8
:1053F0004FF4806020620021A1626162E1620BA033
:10540000206604F5956060661020A0662167E1665D
:10541000616709A1E01DFAF796FF08A12046FAF797
:1054200092FF2020A07110BDF8C900205465726D54
:10543000696E616C000000005254540053454747A8
:10544000455200000169C268914204D88068801A00
:105450000844401E7047881A401E70472DE9F047E7
:105460000546894617464FF00008EC682869A042B7
:1054700002D9061B761E03E0A968201A0E1A761EB2
:10548000A868001BB04200D80646BE4200D33E4684
:105490006868324620444946FAF723FFB044B144D5
:1054A000BF1B3444A868A04200D10024EC60002F48
:1054B000DCD14046BDE8F0872DE9F041044688463E
:1054C0001646E768A068C51BE1686068B5420844F5
:1054D00007D932464146FAF704FFB819E060BDE843
:1054E000F0812A464146FAF7FCFE761B08EB0501DF
:1054F00032466068FAF7F5FEE660F0E70FB4054B58
:1055000010B503A9044A029800F03CF810BC5DF8FD
:1055100014FB0000E56300086C0100200FB4084B89
:1055200010B504A902AA039800F02CF8044602A9B9
:10553000002000F058FA204610BC5DF814FB000073
:10554000E75900080907090E002804DB00F1E020F4
:1055500080F80014704700F00F0000F1E02080F8A0
:10556000141D704702E008C8121F08C1002AFAD1B2
:1055700070477047002001E001C1121F002AFBD1D3
:10558000704700002DE9FF4F8DB00F4605460026FD
:1055900006E025280BD0DDE90F1290476D1C761C24
:1055A00028780028F5D111B03046BDE8F08F0024EE
:1055B000A246A1460122EC4900E0044315F8013F50
:1055C000203B02FA03F00842F7D128782A2810D0AD
:1055D0006FF02F022878A0F13001092914D80AEBC6
:1055E0008A0102EB410144F0020400EB010A6D1C48
:1055F000F0E701CF5FEA000A03D544F40054CAF192
:10560000000A44F002046D1C28782E2817D115F8E2
:10561000010F44F004042A280ED06FF02F022878DE
:10562000A0F1300109290AD809EB890102EB4101F7
:1056300000EB01096D1CF2E757F8049B6D1C2878FC
:105640006C280FD006DC4C2817D068280DD06A28AB
:1056500014D104E0742810D07A280FD10DE044F45E
:1056600000140AE044F4801401E044F44014697822
:10567000814202D104F580146D1C6D1C2A786E2ABB
:105680001FD00CDC632A31D004DC002A8BD0582ACE
:1056900011D1A3E0642A68D0692A0CD165E0732A8D
:1056A0002ED004DC6F2A73D0702A04D19BE0752AB7
:1056B0006FD0782A6ED01046DDE90F129047761C25
:1056C00050E1C4F30250022806D0032809D0042870
:1056D00001CF09D0066045E101CFF117C0E90061B3
:1056E00040E101CF06803DE106703BE117F8040B75
:1056F0008DF8000000208DF80100EB46012003E04A
:1057000057F804BB4FF0FF3061074FF0000102D49F
:105710000DE008F10101884649450FDA8045F8DBC4
:105720001BF808100029F4D108E008F101018846AF
:105730008142FADB1BF808100029F6D1DDE90F23BE
:10574000AAEB08008146214600F036F9304400EB10
:10575000080604E0DDE90F121BF8010B9047B8F1D1
:105760000108F7D221464846F7E00A21C4F3025364
:105770004FF0000B0891022B04D001CFC117032B6F
:1057800009D00AE0FF1D27F00707F7E8020108E04B
:1057900032E01FE020E000B2C117042B01D140B27B
:1057A000C117031E71F1000307DA4FF0000CD0EBB4
:1057B0000C006CEB01012D2302E0230504D52B2303
:1057C0008DF82430012303E0E30701D02023F7E71D
:1057D000984658E00A2110E010210EE010204FF00A
:1057E000000B08900CE010214FF0000B44F0040473
:1057F0004FF00809089103E008214FF0000B0891D1
:10580000C4F30253022B04D001CF0021032B06D096
:1058100006E0FF1D27F00707F7E8020103E080B26A
:10582000042B00D1C0B24FF0000823072BD5702AFB
:1058300007D0DDF820C08CF0100C5CEA0B0C05D012
:105840000EE040238DF82430012308E050EA0103E4
:1058500006D030238DF824308DF825200223984679
:10586000DDF820C08CF0080C5CEA0B0C0BD150EA80
:10587000010301D1630706D530238DF824304FF0A2
:105880000108A9F10109582A04D038A20B9208AAEC
:105890000A920BE03AA2F9E75B46089AFAF7F0FCA5
:1058A0000B9B9B5C0A9A521E0A92137050EA0102EB
:1058B000F2D10A98ADEB000000F1200B600702D591
:1058C00024F4803401E04FF00109D94502DDA9EB51
:1058D0000B0000E0002000EB0B0141440890AAEB14
:1058E000010AE00306D4DDE90F232146504600F00B
:1058F00063F806444FF0000908E009A911F809000F
:10590000DDE90F12904709F10109761CC145F4DB6E
:10591000E0030CD5DDE90F232146504600F04CF89A
:10592000064404E0DDE90F1230209047761C089908
:10593000481E08900029F5DC08E00A980A990078CA
:10594000491C0A91DDE90F129047761CBBF100015A
:10595000ABF1010BF1DC21465046DDE90F2300F0ED
:1059600019F806446D1C1BE609280100303132335A
:10597000343536373839616263646566000000008B
:105980003031323334353637383941424344454675
:10599000000000002DE9F041044600251E46174690
:1059A000880404D405E039462020B0476D1C641EED
:1059B000F9D52846BDE8F0812DE9F04104460025DF
:1059C0001E469046C80301D5302700E020278804F2
:1059D00004D505E041463846B0476D1C641EF9D534
:1059E0002846BDE8F0810A68531C0B6010707047B0
:1059F00000F010FE032003F041FD03F0F7F803F080
:105A00007DFA00F007FB00F02FFAFFF7B9FC184C05
:105A10001849206800F09EF91649606800F09AF96C
:105A200015481E21006801F067FD14481E2100681A
:105A300001F062FD12481E21006801F05DFD114871
:105A40003221006801F058FD01F0E8FD0E4C0F48CE
:105A5000FBF77DFD20680C3050E8001F41F020016D
:105A600040E80012002AF5D10A2001F059FAEEE7C9
:105A7000EC000020C15C0008280000202C00002061
:105A800024000020300000203C0F002020060020D1
:105A900086B090ED000A8DED030AD0ED010ACDED40
:105AA000040A91ED001A8DED001AD1ED011ACDED29
:105AB000011A131F032B0BD890ED022AB1EE422AD4
:105AC00080ED022A91ED022AB1EE422A81ED022AEE
:105AD000D30708D0C0ED000A80ED010AC1ED001A1D
